:200000000C9404010C948F0E0C94C00E0C94F10E0C94220F0C94530F0C94840F0C94B50F87
:200020000C94E60F0C942F010C942F010C942F010C942F010C942F010C942F010C942F017B
:200040000C942F010C942F010C942F010C942F010C942F010C942F010C942F010C94171029
:200060000C942F010C940B120C9437130C942F010C942F010C942F010C942F010C942F01F9
:200080000C942F010C942F010C942F010C942F010C9444120C9476130C942F010C942F0161
:2000A0000C942F010C942F010C942F010C942F010C942F010C942F010C942F010C942F01C0
:2000C0000C942F010C942F010C942F010C947D120C94B5130C942F010C94B6120C94F4133A
:2000E0000C942F0100002100240027002A002D003000330001010000040107010A010000F0
:200100002200250028002B002E003100340002010000050108010B0100002000230026002B
:2001200029002C002F003200000100000301060109010505050507050808080802020202AB
:200140000A0A08080404040401010101010101010303030303030303040707070C0C0C0C02
:200160000C0C0C0C0202020206060606060606060B0B0B0B0B0B0B0B01021020200808104C
:20018000204010204080020102010804020101020408102040808040201008040201800478
:2001A000020180402010080402010804020101020408102040800102040810204080000030
:2001C000090A02080B0C0D07060304010000000000000000000000000000000000000000C9
:2001E0000000000000000000000011100F00000000000000000000000000000000000000CF
:20020000000000005B065E1511241FBECFEFD1E2DEBFCDBF13E0A0E0B2E0EAEEF3E300E0CB
:200220000BBF02C007900D92A038B107D9F71BBE16E0A0E8B3E001C01D92AF36B107E1F7CD
:2002400012E0C8E0D2E004C02297FE010E94B019C430D107C9F70E947C160C94F3190C945F
:200260000000AEE0B0E0E7E3F1E00C94CA190D891E8986E08C831A8309838FEF9FE79E8342
:200280008D839E01275E3F4FCE0101966F89788DA9010E9455012F813885020F131FF801EE
:2002A00010822E96E4E00C94E619ABE0B0E0EBE5F1E00C94BC193C012B015A01FC011782FA
:2002C0001682838181FD03C06FEF7FEFC6C19AE0892E1E010894211C311CF3012381F201ED
:2002E00023FD859123FF81912F01882309F4B2C1853239F423FD859123FF81912F01853214
:2003000029F490E0B3010E944803E7CF982FFF24EE249924FFE1FF15D0F09B3269F09C3298
:2003200028F4903259F0933291F40EC09D3249F0903369F441E024C052E0F52A84E0F82A7A
:2003400028C098E0F92A25C0E0E1FE2A22C0F7FC29C0892F80538A3070F4F6FE05C0989CF8
:20036000902C1124980E15C0E89CE02C1124E80EF0E2FF2A0EC09E3229F4F6FC6BC140E45E
:20038000F42A07C09C3619F450E8F52A02C0983649F4F20123FD959123FF91912F0199230C
:2003A00009F0B8CF892F8554833018F08052833038F444E050E0A40EB51E5FE359830FC0FA
:2003C000933631F0933779F0933509F056C020C0F5018081898342E050E0A40EB51E61010D
:2003E00001E010E012C0F501C080D180F6FC03C06FEF7FEF02C0692D70E042E050E0A40EA6
:20040000B51EC6010E943D038C015FE7F52214C0F501C080D180F6FC03C06FEF7FEF02C0D8
:20042000692D70E042E050E0A40EB51EC6010E9432038C0150E8F52AF3FE07C01AC080E289
:2004400090E0B3010E944803EA948E2D90E008171907A8F30EC0F601F7FC8591F7FE819133
:200460006F0190E0B3010E944803E110EA94015010400115110579F7EAC0943611F099360B
:2004800069F5F7FE08C0F501208131814281538184E090E00AC0F501808191819C014427B2
:2004A00037FD4095542F82E090E0A80EB91E9FE6F92257FF09C050954095309521953F4FCF
:2004C0004F4F5F4FE0E8FE2ACA01B901A1012AE030E00E947403D82ED21840C0953729F4AD
:2004E0001F2D1F7E2AE030E01DC01F2D197F9F3661F0903720F4983509F0ACC00FC090376F
:2005000039F0983709F0A6C004C028E030E00AC0106114FD146020E130E004C014FD16608C
:2005200020E132E017FF08C0F501608171818281938144E050E008C0F50180819181BC0108
:2005400080E090E042E050E0A40EB51EA1010E947403D82ED2188FE7F82EF122F6FE0BC0DB
:200560005EEFF522D91438F4F4FE07C0F2FC05C08FEEF82202C01D2D01C0192DF4FE0DC029
:20058000FE01ED0DF11D8081803319F499EEF92208C01F5FF2FE05C003C08F2D867809F080
:2005A0001F5F0F2DF3FC14C0F0FE0FC01E1510F09D2C0BC09D2C9E0C911A1E2D06C080E2A9
:2005C00090E0B3010E9448031F5F1E15C0F304C01E1510F4E11A01C0EE2404FF0FC080E3A8
:2005E00090E0B3010E94480302FF1DC001FD03C088E790E00EC088E590E00BC0802F867849
:2006000091F001FF02C08BE201C080E2F7FC8DE290E0B3010E94480306C080E390E0B30147
:200620000E9448039A94D914C0F3DA94F101ED0DF11D808190E0B3010E944803DD20A9F7E8
:2006400006C080E290E0B3010E944803EA94EE20C1F743CEF30166817781CB012B96E2E1E9
:200660000C94D819FC010590615070400110D8F7809590958E0F9F1F0895FC016150704086
:2006800001900110D8F7809590958E0F9F1F08950F931F93CF93DF938C01EB018B8181FF8A
:2006A0001BC082FF0DC02E813F818C819D812817390764F4E881F9810193F983E88306C07C
:2006C000E885F985802F0995892B31F48E819F8101969F838E8302C00FEF1FEFC801DF9109
:2006E000CF911F910F910895FA01AA27283051F1203181F1E8946F936E7F6E5F7F4F8F4FA0
:200700009F4FAF4FB1E03ED0B4E03CD0670F781F891F9A1FA11D680F791F8A1F911DA11D5E
:200720006A0F711D811D911DA11D20D009F468943F912AE0269F11243019305D3193DEF67D
:20074000CF010895462F4770405D4193B3E00FD0C9F7F6CF462F4F70405D4A3318F0495D9C
:2007600031FD4052419302D0A9F7EACFB4E0A6959795879577956795BA95C9F7009761058F
:20078000710508959B01AC010A2E06945795479537952795BA95C9F7620F731F841F951F72
:2007A000A01D0895A091AE03B091AF03ED91FD918081ED91FD919081ED91FD916C91637004
:2007C0008E2309F064609F2309F06860E2EFF3E0E60FF11D659565956D936D917D918D9163
:2007E0009D91099423C01AC012C016C010C01EC009C014C013C006C019C009C00DC007C0AF
:200800000DC014C062507040804090400BC0615070408040904006C06E5F01C06F5F7F4F99
:200820008F4F9F4F9E938E937E936E930895A091B003B091B103ED91FD918081ED91FD91F9
:200840009081ED91FD916C9163708E2309F064609F2309F06860E7E3F4E0E60FF11D65951F
:2008600065956D936D917D918D919D91099423C01AC012C016C010C01EC009C014C013C006
:2008800006C019C009C00DC007C00DC014C062507040804090400BC061507040804090400D
:2008A00006C06E5F01C06F5F7F4F8F4F9F4F9E938E937E936E930895A091B203B091B3039E
:2008C000ED91FD918081ED91FD919081ED91FD916C9163708E2309F064609F2309F0686021
:2008E000ECE7F4E0E60FF11D659565956D936D917D918D919D91099423C01AC012C016C000
:2009000010C01EC009C014C013C006C019C009C00DC007C00DC014C062507040804090402A
:200920000BC0615070408040904006C06E5F01C06F5F7F4F8F4F9F4F9E938E937E936E93DB
:200940000895A091B403B091B503ED91FD918081ED91FD919081ED91FD916C9163708E2362
:2009600009F064609F2309F06860E1ECF4E0E60FF11D659565956D936D917D918D919D9147
:20098000099423C01AC012C016C010C01EC009C014C013C006C019C009C00DC007C00DC06E
:2009A00014C062507040804090400BC0615070408040904006C06E5F01C06F5F7F4F8F4FE7
:2009C0009F4F9E938E937E936E930895A091B603B091B703ED91FD918081ED91FD91908119
:2009E000ED91FD916C9163708E2309F064609F2309F06860E6E0F5E0E60FF11D6595659598
:200A00006D936D917D918D919D91099423C01AC012C016C010C01EC009C014C013C006C098
:200A200019C009C00DC007C00DC014C062507040804090400BC0615070408040904006C06B
:200A40006E5F01C06F5F7F4F8F4F9F4F9E938E937E936E930895A091B803B091B903ED9138
:200A6000FD918081ED91FD919081ED91FD916C9163708E2309F064609F2309F06860EBE42E
:200A8000F5E0E60FF11D659565956D936D917D918D919D91099423C01AC012C016C010C060
:200AA0001EC009C014C013C006C019C009C00DC007C00DC014C062507040804090400BC08E
:200AC000615070408040904006C06E5F01C06F5F7F4F8F4F9F4F9E938E937E936E93089568
:200AE0000F931F93CF93DF93EC01162F042F862F62E00E942411802F62E00E942411212F83
:200B000030E0F901EE5CFE4FE491F0E0EE0FFF1FE85EFE4F859194919983888328583E4FD2
:200B2000F90184918C83202F30E0F901EE5CFE4FE491F0E0EE0FFF1FE85EFE4F8591949179
:200B40009B838A8328583E4FF90184918D831F82188619861A8680ED97E00E94B810E88109
:200B6000F981208140E030E08C8190E028233923232B09F041E0EA81FB81208130E08D81F8
:200B800090E028233923232B09F042604E831B861231C1F1133130F4123061F0133009F0B7
:200BA00085C010C01431F1F0143120F1153109F07DC010C0D093AF03C093AE0380E062ED90
:200BC00073E027C0D093B103C093B00381E067E174E01FC0D093B303C093B20382E06CE50E
:200BE00074E017C0D093B503C093B40383E061EA74E00FC0D093B703C093B60384E066EEF3
:200C000074E007C0D093B903C093B80385E06BE275E041E050E00E94130E8B858F5F8B8761
:200C20000231B1F1033128F4023051F00330D9F50FC00431E9F0043118F10531A1F510C064
:200C4000D093AF03C093AE0380E062ED73E027C0D093B103C093B00381E067E174E01FC099
:200C6000D093B303C093B20382E06CE574E017C0D093B503C093B40383E061EA74E00FC07F
:200C8000D093B703C093B60384E066EE74E007C0D093B903C093B80385E06BE275E041E003
:200CA00050E00E94130E8B858F5F8B87DF91CF911F910F91089580E893E00E9481098FE8F6
:200CC00093E062E143E10E9470058BE993E065E144E10E94700508956F927F928F929F92B9
:200CE000AF92BF92CF92DF92EF92FF920F931F93CF93DF93909106018091A703981709F4C7
:200D000020C16AE070E080E090E00E945F106091060183EF95E04AE050E00E9493178091E1
:200D20000601882321F0883009F00BC145C080918E03882309F405C183EF95E060E072E0E5
:200D40000E9426188DB79EB70A970FB6F8949EBF0FBE8DBFEDB7FEB731968091A8039091B5
:200D6000A903ADB7BEB712969C938E9311978EE092E09383828381E190E09583848380E5FD
:200D800090E09783868385E090E0918780870E9431018DB79EB70A960FB6F8949EBF0FBE44
:200DA0008DBF6091A8037091A90380E893E00E94C70A10928E03C5C080918E03813009F448
:200DC000C0C083EF95E065E172E00E94261880E893E061E00E94200B83EF95E067E272E0C9
:200DE0000E9426188DEA93E060E070E00E94000E182F8DEA93E061E070E00E94000E312F17
:200E000020E090E0282B392B30938C0320938B0383EF95E061E472E00E94231860918B033E
:200E200070918C0383EF95E04AE050E00E94F11783EF95E069E472E00E94261860918B0352
:200E400070918C0380E893E00E94230A90938C0380938B03880F991F880F991F9093AC0395
:200E60008093AB03F894A0E0B0E08093960390939703A0939803B0939903789483EF95E00C
:200E800064E572E00E9423186091AB037091AC03769567957695679583EF95E04AE050E03C
:200EA0000E94641783EF95E060E672E00E94231860918B0370918C0383EF95E04AE050E069
:200EC0000E9404188DEA93E062E070E00E94000E682F80938D0380E893E00E94BE09809397
:200EE0008D03880F880F8093AA03F89490E0A0E0B0E08093960390939703A0939803B093EE
:200F00009903789483EF95E06091AA034AE050E00E94931783EF95E061E472E00E942318A3
:200F200083EF95E060918D034AE050E00E94811783EF95E069E472E00E94261881E08093DB
:200F40008E03809106018093A70380919A03823008F044C0F894AFE8B3E0ED91FD9180810C
:200F6000ED91FD919081ED91FD916C9163708E2309F064609F2309F06860E9ECF7E0E60FE6
:200F8000F11D659565956D936D917D918D919D91099423C01AC012C016C010C01EC009C07E
:200FA00014C013C006C019C009C00DC007C00DC014C062507040804090400BC061507040CF
:200FC0008040904006C06E5F01C06F5F7F4F8F4F9F4F9E938E937E936E9301C0F894A090E4
:200FE0009603B0909703C0909803D090990378948091AA0390E0A0E0B0E0A816B906CA0600
:20100000DB0609F445C0C601B5010E943F1820E030E040E85EE30E94EF187B018C01C60185
:20102000B50124E030E040E050E00E949319CA01B9010E943F189B01AC01C801B7010E945E
:201040003918882329F542E0D594C794B794A7944A95D1F780E893E06A2D0E94BE09809375
:201060008D03880F880F8093AA03F89490E0A0E0B0E08093960390939703A0939803B0936C
:201080009903789464E670E080E090E00E945F108091A603823008F044C0F894ABE9B3E012
:2010A000ED91FD918081ED91FD919081ED91FD916C9163708E2309F064609F2309F0686039
:2010C000ECE6F8E0E60FF11D659565956D936D917D918D919D91099423C01AC012C016C015
:2010E00010C01EC009C014C013C006C019C009C00DC007C00DC014C0625070408040904043
:201100000BC0615070408040904006C06E5F01C06F5F7F4F8F4F9F4F9E938E937E936E93F3
:2011200001C0F894A090A203B090A303C090A403D090A50378948091AB039091AC033C01D0
:2011400088249924A614B704C804D90409F470C0C601B5010E943F1820E030E040E85EE3EC
:201160000E94EF187B018C01C601B50124E030E040E050E00E949319CA01B9010E943F1810
:201180009B01AC01C801B7010E943918882309F04FC0C0918B03D0918C03BE01882777FD2E
:2011A0008095982F32E0D594C794B794A7943A95D1F76A197B098C099D092AE030E040E0E4
:2011C00050E00E945219653671058105910534F5C60FD71F80E893E0BE010E94230A909325
:2011E0008C0380938B03880F991F880F991F9093AC038093AB03F894A0E0B0E08093A2033A
:201200009093A303A093A403B093A503789464E670E080E090E00E945F100AC0F894609271
:20122000A2037092A3038092A4039092A5037894DF91CF911F910F91FF90EF90DF90CF90D6
:20124000BF90AF909F908F907F906F9008950F931F9303EF15E0C80140E855E260E070E014
:201260000E943314C8016BE672E00E94261880E893E061E00E94490DC8016AE772E00E9417
:20128000231882E460E00E94241182E461E00E94D711C8016EE20E94B51681E460E00E9498
:2012A000241181E461E00E94D711C8016EE20E94B51680E460E00E94241180E461E00E9481
:2012C000D711C8016EE20E94B5168FE360E00E9424118FE361E00E94D711C8016EE20E941F
:2012E000B5168EE360E00E9424118EE361E00E94D711C8016EE872E00E9426181F910F91BE
:20130000089508950F931F93CF93DF938B01EA0185E360E00E94D71161E070E080E090E061
:201320000E945F1088E48EBD0DB407FEFDCF8EB520E030E00BC0F801E20FF31F80818EBDED
:201340000DB407FEFDCF8EB52F5F3F4F2C173D0794F3AE0107C01EBC0DB407FEFDCF8EB569
:201360004F5F5F4F48305105B4F385E361E00E94D711DF91CF911F910F9108950F931F9358
:20138000CF93DF93EC016F3308F043C069838C010E5F1F4F8DB79EB740970FB6F8949EBF7D
:2013A0000FBE8DBFEDB7FEB73196ADB7BEB712961C930E9311978EE992E09383828382E114
:2013C00090E0958384831782168280E490E0918780871386128615861486862F992787FDFB
:2013E0009095978786870E9431018DB79EB740960FB6F8949EBF0FBE8DBFCE01B80146E0E5
:2014000050E00E9482096AE070E080E090E00E945F108DEA93E062E070E049810E94070EF7
:2014200083EF95E060EB72E00E94231883EF95E069814AE050E00E9493178981DF91CF91FA
:201440001F910F910895EF92FF920F931F93CF93DF93EC018B018AE2613378071CF000E37E
:201460001AE28DC092E26E3279071CF40EE212E286C0872F992787FD9A95F82EE62E8881E9
:20148000813049F082301CF48823E9F04DC084300CF04AC018C0ADB7BEB71C970FB6F894A0
:2014A000BEBF0FBEADBFEDB7FEB7319622961296DC93CE931197229781EC92E093838283CB
:2014C00080E290E017C0ADB7BEB71C970FB6F894BEBF0FBEADBFEDB7FEB731962296129650
:2014E000DC93CE931197229781EC92E09383828380E490E095838483178216828F2D992721
:2015000087FD9095918780878E2D992787FD9095938782870E9431018DB79EB70C960FB6E8
:20152000F8949EBF0FBE8DBFCE012296BE0144E050E00E9482098DEA93E060E070E04F2DEC
:201540000E94070E8DEA93E061E070E04E2D0E94070E83EF95E06AEC72E00E9423186F2D1F
:20156000772767FD7095762F66278E2D90E0682B792B83EF95E04AE050E00E940418C80108
:20158000DF91CF911F910F91FF90EF900895AF92BF92CF92DF92EF92FF920F931F93CF9354
:2015A000DF93EC016B017C01AA24BB2434C0812F992787FD90950E94B4198A33910514F063
:2015C000875302C0812F8053992787FD909554E0880F991F5A95E1F7082FF7018283F6010E
:2015E0001181812F992787FD90950E94B4198A33910514F0875302C0812F8053800FF701D4
:2016000082830894A11CB11C82E090E0C80ED91E0894E11CF11CF6011081112341F6CE0198
:201620002296BE01A5010E948209DF91CF911F910F91FF90EF90DF90CF90BF90AF90089539
:201640008F929F92AF92BF92CF92DF92EF92FF920F931F93CF93DF93EC0168838EE3898345
:2016600083EF95E061ED72E00E9423188881813049F082301CF4882319F1FEC184300CF02D
:20168000FBC11EC08DB79EB70A970FB6F8949EBF0FBE8DBFEDB7FEB731962296ADB7BEB7FE
:2016A0001296DC93CE931197229788EE92E09383828381E090E09583848380E590E01BC0AE
:2016C000ADB7BEB71A970FB6F894BEBF0FBEADBFEDB7FEB7319622961296DC93CE93119781
:2016E000229788EE92E09383828381E090E09583848381E590E09783868385E090E0918758
:2017000080870E9431018DB79EB70A960FB6F8949EBF0FBE8DBFB2E0EB2EF12CEC0EFD1E11
:20172000CE01B70143E050E00E94820983EF95E06EE20E94B51668EC70E080E090E00E94E8
:201740005F1083EF95E06FEE72E00E94261883EF95E065EF72E00E942318ADB7BEB750977A
:201760000FB6F894BEBF0FBEADBFEDB7FEB731961296FC92EE921197AEE9CA2EA2E0DA2ECB
:20178000D382C28272E1A72EB12CB582A4821782168200E410E0118700871386128615865E
:2017A00014868981992787FD9095978786870E9431018DB79EB740960FB6F8949EBF0FBE33
:2017C0008DBFCE01B70146E050E00E94820983EF95E06EE20E94B5166AE070E080E090E0A5
:2017E0000E945F1083EF95E06EE20E94B516ADB7BEB750970FB6F894BEBF0FBEADBFEDB7C9
:20180000FEB731961296FC92EE921197D382C282B582A482178216821187008761E0862EB3
:20182000912C9386828615861486178616860E9431018DB79EB740960FB6F8949EBF0FBE9E
:201840008DBFCE01B70146E050E00E94820983EF95E06EE20E94B51661E070E080E090E02D
:201860000E945F1083EF95E06FEE72E00E94261883EF95E062E173E00E94231888818230CC
:2018800021F0833009F0F2C081C083EF95E061E273E00E942318ADB7BEB750970FB6F8942D
:2018A000BEBF0FBEADBFEDB7FEB731961296FC92EE921197D382C282B582A48217821682CD
:2018C00004E310E0118700871386128688E090E0958784878CEF90E0978786870E943101F8
:2018E0008DB79EB740960FB6F8949EBF0FBE8DBFCE01B70146E050E00E94820983EF95E0C1
:201900006EE20E94B51661E070E080E090E00E945F10ADB7BEB750970FB6F894BEBF0FBE3D
:20192000ADBFEDB7FEB731961296FC92EE921197D382C282B582A482178216821187008777
:201940009386828689E590E09587848788ED90E0978786870E9431018DB79EB740960FB649
:20196000F8949EBF0FBE8DBFCE01B70146E050E00E94820983EF95E06EE20E94B51661E076
:2019800070E080E090E00E945F106BC083EF95E066E273E00E942318ADB7BEB750970FB607
:2019A000F894BEBF0FBEADBFEDB7FEB731961296FC92EE921197D382C282B582A4821782D8
:2019C000168204E310E011870087138612861586148689E990E0978786870E9431018DB7EE
:2019E0009EB740960FB6F8949EBF0FBE8DBFCE01B70146E050E00E94820983EF95E06EE2B4
:201A00000E94B516ADB7BEB750970FB6F894BEBF0FBEADBFEDB7FEB731961296FC92EE92BC
:201A20001197D382C282B582A4821782168211870087938682869586848687E190E097877C
:201A400086870E9431018DB79EB740960FB6F8949EBF0FBE8DBFCE01B70146E050E00E94F0
:201A6000820983EF95E06FEE72E004C083EF95E06BE273E00E942618DF91CF911F910F91FA
:201A8000FF90EF90DF90CF90BF90AF909F908F900895EF92FF920F931F93FC0160838EE33A
:201AA000818303EF15E0C80169E373E00E94231888E061E00E942411C8016EE20E94B516F0
:201AC00089E061E00E942411C8016EE20E94B51682E361E00E942411C8016EE20E94B516FC
:201AE00082E061E00E9424118FEEE82E82E0F82EC801B7010E942618C8016BE473E00E94E3
:201B0000231889E060E00E94D711C8016EE20E94B51688E060E00E94D711C801B7010E947C
:201B20002618C80168E573E00E94231882E361E00E94D71182E061E00E94D711C8016EE2AB
:201B40000E94B51661E070E080E090E00E945F1088E061E00E94D711C8016EE20E94B516ED
:201B600064E670E080E090E00E945F1089E061E00E94D71164E670E080E090E00E945F103B
:201B8000C801B7010E942618C80165E673E00E94231883E361E00E942411C8016EE20E9467
:201BA000B51682E360E00E942411C8016EE20E94B51684E361E00E942411C8016EE20E941E
:201BC000B51685E361E00E942411C8016EE20E94B51682E060E00E942411C8016EE20E9400
:201BE000B51685E361E00E94D711C801B7010E94261880E58CBD1F910F91FF90EF900895DD
:201C0000F999FECF72BD61BDF89A80B50895F999FECF1FBA72BD61BD40BD0FB6F894FA9A4D
:201C2000F99A0FBE0895883008F078C0E82FF0E0EE0FFF1FE654FC4F718360838330D9F0E5
:201C4000843030F4813009F444C0823060F439C0853051F18530D8F0863009F446C0873017
:201C600009F05CC04FC0809169008C7F842B80936900E89A089580916900440F551F440FDD
:201C8000551F837F842B80936900E99A08958091690074E0440F551F7A95E1F78F7C842B4D
:201CA00080936900EA9A08958091690066E0440F551F6A95E1F78F73842B80936900EB9A77
:201CC000089580916A008C7F842B80936A00EC9A089580916A00440F551F440F551F837F87
:201CE000842B80936A00ED9A089580916A0024E0440F551F2A95E1F78F7C842B80936A0080
:201D0000EE9A089580916A0096E0440F551F9A95E1F78F73842B80936A00EF9A08951F92DA
:201D20000F920FB60F920BB60F9211242F933F934F935F936F937F938F939F93AF93BF93A1
:201D4000EF93FF938091BE039091BF03892B29F0E091BE03F091BF030995FF91EF91BF917A
:201D6000AF919F918F917F916F915F914F913F912F910F900BBE0F900FBE0F901F90189594
:201D80001F920F920FB60F920BB60F9211242F933F934F935F936F937F938F939F93AF93E2
:201DA000BF93EF93FF938091C0039091C103892B29F0E091C003F091C1030995FF91EF9110
:201DC000BF91AF919F918F917F916F915F914F913F912F910F900BBE0F900FBE0F901F9091
:201DE00018951F920F920FB60F920BB60F9211242F933F934F935F936F937F938F939F9317
:201E0000AF93BF93EF93FF938091C2039091C303892B29F0E091C203F091C3030995FF91E5
:201E2000EF91BF91AF919F918F917F916F915F914F913F912F910F900BBE0F900FBE0F905F
:201E40001F9018951F920F920FB60F920BB60F9211242F933F934F935F936F937F938F9339
:201E60009F93AF93BF93EF93FF938091C4039091C503892B29F0E091C403F091C5030995DB
:201E8000FF91EF91BF91AF919F918F917F916F915F914F913F912F910F900BBE0F900FBE0E
:201EA0000F901F9018951F920F920FB60F920BB60F9211242F933F934F935F936F937F935C
:201EC0008F939F93AF93BF93EF93FF938091BA039091BB03892B29F0E091BA03F091BB031F
:201EE0000995FF91EF91BF91AF919F918F917F916F915F914F913F912F910F900BBE0F90DD
:201F00000FBE0F901F9018951F920F920FB60F920BB60F9211242F933F934F935F936F9340
:201F20007F938F939F93AF93BF93EF93FF938091BC039091BD03892B29F0E091BC03F09164
:201F4000BD030995FF91EF91BF91AF919F918F917F916F915F914F913F912F910F900BBE5B
:201F60000F900FBE0F901F9018951F920F920FB60F920BB60F9211242F933F934F935F9343
:201F80006F937F938F939F93AF93BF93EF93FF938091C6039091C703892B29F0E091C60365
:201FA000F091C7030995FF91EF91BF91AF919F918F917F916F915F914F913F912F910F9039
:201FC0000BBE0F900FBE0F901F9018951F920F920FB60F920BB60F9211242F933F934F930C
:201FE0005F936F937F938F939F93AF93BF93EF93FF938091C8039091C903892B29F0E091D8
:20200000C803F091C9030995FF91EF91BF91AF919F918F917F916F915F914F913F912F91AA
:202020000F900BBE0F900FBE0F901F9018951F920F920FB60F9211242F933F938F939F93FC
:20204000AF93BF938091CE039091CF03A091D003B091D1033091D2030196A11DB11D232FF3
:202060002D5F2D3720F02D570196A11DB11D2093D2038093CE039093CF03A093D003B0930F
:20208000D1038091CA039091CB03A091CC03B091CD030196A11DB11D8093CA039093CB039A
:2020A000A093CC03B093CD03BF91AF919F918F913F912F910F900FBE0F901F9018959B0198
:2020C000AC017FB7F8948091CA039091CB03A091CC03B091CD0366B5A89B05C06F3F19F0D9
:2020E0000196A11DB11D7FBFBA2FA92F982F8827860F911DA11DB11D62E0880F991FAA1F1F
:20210000BB1F6A95D1F7BC012DC0FFB7F8948091CA039091CB03A091CC03B091CD03E6B5B9
:20212000A89B05C0EF3F19F00196A11DB11DFFBFBA2FA92F982F88278E0F911DA11DB11D71
:20214000E2E0880F991FAA1FBB1FEA95D1F7861B970B885E9340C8F22150304040405040DD
:2021600068517C4F211531054105510571F60895019739F0880F991F880F991F029701973F
:20218000F1F70895789484B5826084BD84B5816084BD85B5826085BD85B5816085BDEEE668
:2021A000F0E0808181608083E1E8F0E01082808182608083808181608083E0E8F0E08081DB
:2021C00081608083E1EBF0E0808184608083E0EBF0E0808181608083E1E9F0E0808182609A
:2021E0008083808181608083E0E9F0E0808181608083E1EAF0E08081826080838081816016
:202200008083E0EAF0E0808181608083E1E2F1E0808182608083808181608083E0E2F1E04A
:20222000808181608083EAE7F0E0808184608083808182608083808181608083808180687C
:2022400080831092C1000895CF93DF93482F50E0CA0188589E4FFC0134914E5C5E4FFA0154
:202260008491882369F190E0880F991FFC01EC51FF4FA591B491FC01E250FF4FC591D4914A
:20228000662351F42FB7F8948C91932F909589238C93888189230BC0623061F42FB7F89456
:2022A0008C91932F909589238C938881832B88832FBF06C09FB7F8948C91832B8C939FBFAF
:2022C000DF91CF910895893009F449C08A30A0F4843051F1853040F4823079F1833000F5E1
:2022E000813009F063C026C0873079F1883098F5863009F05BC025C08D3009F442C08E309C
:2023000028F48B30B1F18C30C0F52DC0803109F442C0813109F445C08F3009F047C037C0CC
:20232000809180008F7703C0809180008F7D80938000089584B58F7702C084B58F7D84BDEF
:2023400008958091B0008F7703C08091B0008F7D8093B0000895809190008F7707C08091AA
:2023600090008F7D03C080919000877F8093900008958091A0008F7707C08091A0008F7DDC
:2023800003C08091A000877F8093A0000895809120018F7703C0809120018F7D8093200106
:2023A000089580912001877F809320010895FF920F931F93F62E482F50E0CA0182549E4F39
:2023C000FC012491CA0188589E4FFC0114914E5C5E4FFA0104910023C9F0222319F0822F4F
:2023E0000E946311E02FF0E0EE0FFF1FE250FF4FA591B4919FB7F894FF2021F48C911095FA
:20240000812302C08C91812B8C939FBF1F910F91FF90089508951F920F920FB60F920BB67E
:202420000F9211242F933F934F938F939F93EF93FF934091C60020911304309114042F5F22
:202440003F4F2F73307080911504909116042817390759F0E0911304F0911404ED52FC4FD4
:2024600040833093140420931304FF91EF919F918F914F913F912F910F900BBE0F900FBE50
:202480000F901F90189508951F920F920FB60F920BB60F9211242F933F934F938F939F938B
:2024A000EF93FF934091CE0020919B0430919C042F5F3F4F2F73307080919D0490919E04E5
:2024C0002817390759F0E0919B04F0919C04E55AFB4F408330939C0420939B04FF91EF91F2
:2024E0009F918F914F913F912F910F900BBE0F900FBE0F901F90189508951F920F920FB699
:202500000F920BB60F9211242F933F934F938F939F93EF93FF934091D60020912305309164
:2025200024052F5F3F4F2F73307080912505909126052817390759F0E0912305F091240582
:20254000ED51FB4F40833093240520932305FF91EF919F918F914F913F912F910F900BBE31
:202560000F900FBE0F901F90189508951F920F920FB60F920BB60F9211242F933F934F9392
:202580008F939F93EF93FF93409136012091AB053091AC052F5F3F4F2F7330708091AD05D7
:2025A0009091AE052817390759F0E091AB05F091AC05E559FA4F40833093AC052093AB050B
:2025C000FF91EF919F918F914F913F912F910F900BBE0F900FBE0F901F901895E091FF05E7
:2025E000F0910006E05CFF4F8191919120813181821B930B8F739070892B11F00E940A1293
:20260000E0911E06F0911F06E05CFF4F8191919120813181821B930B8F739070892B11F07C
:202620000E944312E0913D06F0913E06E05CFF4F8191919120813181821B930B8F739070DC
:20264000892B11F00E947C12E0915C06F0915D06E05CFF4F8191919120813181821B930B92
:202660008F739070892B11F00E94B51208951F920F920FB60F920BB60F9211242F933F93BA
:202680008F939F93EF93FF9320915704309158048091590490915A042817390731F4809107
:2026A000C1008F7D8093C10014C0E0915904F0915A04E95EFB4F20818091590490915A04D9
:2026C00001968F73907090935A04809359042093C600FF91EF919F918F913F912F910F9068
:2026E0000BBE0F900FBE0F901F9018951F920F920FB60F920BB60F9211242F933F938F93A5
:202700009F93EF93FF932091DF043091E0048091E1049091E2042817390731F48091C900BF
:202720008F7D8093C90014C0E091E104F091E204E156FB4F20818091E1049091E20401966A
:202740008F7390709093E2048093E1042093CE00FF91EF919F918F913F912F910F900BBE9D
:202760000F900FBE0F901F9018951F920F920FB60F920BB60F9211242F933F938F939F93BB
:20278000EF93FF9320916705309168058091690590916A052817390731F48091D1008F7D39
:2027A0008093D10014C0E0916905F0916A05E95DFA4F20818091690590916A0501968F73BA
:2027C000907090936A05809369052093D600FF91EF919F918F913F912F910F900BBE0F9066
:2027E0000FBE0F901F9018951F920F920FB60F920BB60F9211242F933F938F939F93EF9358
:20280000FF932091EF053091F0058091F1059091F2052817390731F4809131018F7D8093A6
:20282000310114C0E091F105F091F205E155FA4F20818091F1059091F20501968F739070DB
:202840009093F2058093F10520933601FF91EF919F918F913F912F910F900BBE0F900FBEA7
:202860000F901F901895AF92BF92DF92EF92FF920F931F93CF93DF93EC017A018B01DD242B
:20288000403081EE580780E0680780E0780711F0DD24D39491E0A92EB12CEC89FD89DD20C6
:2028A00069F0C5010E8C02C0880F991F0A94E2F7808360E079E08DE390E005C0108260E8BC
:2028C00074E88EE190E0A80197010E9471192150304040405040569547953795279580E1AF
:2028E0002030380720F0DD2011F0DD24D6CFE889F9893083EA89FB892083EE89FF89408195
:2029000021E030E0C9010A8C02C0880F991F0A94E2F7482B4083EE89FF894081C9010B8C67
:2029200002C0880F991F0A94E2F7482B4083EE89FF894081C9010C8C02C0880F991F0A9408
:20294000E2F7482B4083EE89FF8980810D8C02C0220F331F0A94E2F7209528232083DF9100
:20296000CF911F910F91FF90EF90DF90BF90AF900895DC011C96ED91FC911D97E05CFF4F27
:202980002191319180819181281B390B2F733070C9010895DC011C96ED91FC911D97E05CF6
:2029A000FF4F20813181E054F040DF01AE5BBF4F8D919C9111972817390719F42FEF3FEF50
:2029C00007C08D919C91E80FF91F8081282F30E0C9010895DC011C96ED91FC911D97E05C7D
:2029E000FF4F20813181E054F040DF01AE5BBF4F8D919C9111972817390719F42FEF3FEF10
:202A000010C08D919C911197E80FF91F20818D919C91119701968F73907011969C938E93C0
:202A200030E0C9010895FC0186859785DC01A05CBF4FFC01EE5BFF4F2D913C91119780814C
:202A4000918128173907C1F70895CF93DF93EC01EE85FF85E05CFF4F20813181E054F04097
:202A60002F5F3F4F2F733070DF01AE5BBF4F8D919C91119728173907D1F3E05CFF4F808140
:202A80009181E054F040E80FF91F6083EE85FF85E05CFF4F31832083EE89FF89208181E0F5
:202AA00090E00D8C02C0880F991F0A94E2F7282B208381E090E0DF91CF9108951F931092FD
:202AC000F6051092F50528EE33E040E050E02093F7053093F8054093F9055093FA0564E779
:202AE00073E07093F4056093F30583ED93E0909300068093FF0587E194E09093020680935F
:202B0000010685EC90E0909304068093030684EC90E0909306068093050680EC90E0909358
:202B200008068093070681EC90E090930A068093090686EC90E090930C0680930B0614E006
:202B400010930D06B3E0B0930E06A7E0A0930F06F5E0F0931006E1E0E09311061092150690
:202B6000109214062093160630931706409318065093190670931306609312068BE594E0EC
:202B800090931F0680931E068FE994E090932106809320068DEC90E09093230680932206D7
:202BA0008CEC90E0909325068093240688EC90E0909327068093260689EC90E090932906F8
:202BC000809328068EEC90E090932B0680932A0610932C06B0932D06A0932E06F0932F06C9
:202BE000E0933006109234061092330620933506309336064093370650933806709332061C
:202C00006093310683EE94E090933E0680933D0687E295E09093400680933F0685ED90E067
:202C2000909342068093410684ED90E0909344068093430680ED90E090934606809345067B
:202C400081ED90E0909348068093470686ED90E090934A068093490610934B06B0934C0684
:202C6000A0934D06F0934E06E0934F061092530610925206209354063093550640935606E0
:202C80005093570670935106609350068BE695E090935D0680935C068FEA95E090935F06FA
:202CA00080935E0685E391E0909361068093600684E391E0909363068093620680E391E00E
:202CC000909365068093640681E391E0909367068093660686E391E0909369068093680618
:202CE00010936A06B0936B06A0936C06F0936D06E0936E061F910895CF93DF930E94C210F6
:202D00000E942709CEEED2E10E946C062097E1F30E94EE12F9CFCF92DF92EF92FF920F93E3
:202D20001F93CF93DF937C016B018A01C0E0D0E00FC0D6016D916D01D701ED91FC910190C3
:202D4000F081E02DC7010995C80FD91F015010400115110571F7CE01DF91CF911F910F919C
:202D6000FF90EF90DF90CF900895DC01ED91FC910190F081E02D09950895EF92FF920F93F4
:202D80001F938C01DC01ED91FC910190F081E02D6DE009957C01D801ED91FC910190F081AF
:202DA000E02DC8016AE009959C012E0D3F1DC9011F910F91FF90EF900895CF93DF93DB01AC
:202DC0000D900020E9F71197A61BB70BEC01E881F9810280F381E02DAD010995DF91CF913C
:202DE00008954F925F927F928F929F92AF92BF92CF92DF92EF92FF920F931F93DF93CF9363
:202E0000CDB7DEB7A1970FB6F894DEBF0FBECDBF2C01742ECB01223008F42AE019A231E259
:202E2000C32ED12CCC0EDD1E822E9924AA24BB24672D752FA50194010E94711979018A0111
:202E4000C801B701A50194010E945219472D461B0894C108D1084A3014F4405D01C0495C11
:202E6000F6014083E114F1040105110521F07E2C5F2DC801DDCFC201B6010E94DD16A19690
:202E80000FB6F894DEBF0FBECDBFCF91DF911F910F91FF90EF90DF90CF90BF90AF909F9032
:202EA0008F907F905F904F900895DC012115310541F4ED91FC910190F081E02D642F0995B0
:202EC00008950E94F1160895CF92DF92EF92FF920F931F936C017B019A0100E010E0B801CA
:202EE000A7010E9455178C01C6010E94BD16080F191FC8011F910F91FF90EF90DF90CF900F
:202F00000895EF92FF920F931F939A01E62EFF2400E010E0B801A7010E9455171F910F914D
:202F2000FF90EF900895CF92DF92EF92FF920F931F936C01E62E9A01FF2400E010E0B801E6
:202F4000A7010E9455178C01C6010E94BD16080F191FC8011F910F91FF90EF90DF90CF90AE
:202F60000895CF92DF92EF92FF920F931F93CF93DF93EC016A017B012115310541F4E881CA
:202F8000F9810190F081E02D642F09951FC02A303105D1F477FF17C0E881F9810190F08111
:202FA000E02D6DE209958C0144275527BA014C195D096E097F09CE012AE00E94F116980103
:202FC000280F391F04C02AE00E94F1169C01C901DF91CF911F910F91FF90EF90DF90CF9088
:202FE0000895EF92FF920F931F937B019A010027F7FC0095102FB801A7010E94B1171F914E
:203000000F91FF90EF900895CF92DF92EF92FF920F931F936C017B019A010027F7FC0095FA
:20302000102FB801A7010E94B1178C01C6010E94BD16080F191FC8011F910F91FF90EF9047
:20304000DF90CF9008950E94DD160895EF92FF920F931F937C010E94DD168C01C7010E9464
:20306000BD16080F191FC8011F910F91FF90EF90089540D008F481E00895E89409C097FB89
:203080003EF490958095709561957F4F8F4F9F4F9923A9F0F92F96E9BB279395F695879582
:2030A00077956795B795F111F8CFFAF4BB0F11F460FF1BC06F5F7F4F8F4F9F4F16C0882313
:2030C00011F096E911C0772321F09EE8872F762F05C0662371F096E8862F70E060E02AF087
:2030E0009A95660F771F881FDAF7880F9695879597F90895990F0008550FAA0BE0E8FEEF95
:2031000016161706E807F907C0F012161306E407F50798F0621B730B840B950B39F40A2690
:2031200061F0232B242B252B21F408950A2609F4A140A6958FEF811D811D089597F99F6769
:2031400080E870E060E008959FEF80EC089500240A941616170618060906089500240A94AC
:2031600012161306140605060895092E0394000C11F4882352F0BB0F40F4BF2B11F460FF34
:2031800004C06F5F7F4F8F4F9F4F089557FD9058440F551F59F05F3F71F04795880F97FB16
:2031A000991F61F09F3F79F087950895121613061406551FF2CF4695F1DF08C016161706BA
:2031C0001806991FF1CF86957105610508940895E894BB2766277727CB0197F908950BD0CC
:2031E000C4CFB5DF28F0BADF18F0952309F0A6CFABCF1124EECFCADFA0F3959FD1F3950F85
:2032000050E0551F629FF001729FBB27F00DB11D639FAA27F00DB11DAA1F649F6627B00DA6
:20322000A11D661F829F2227B00DA11D621F739FB00DA11D621F839FA00D611D221F749F36
:203240003327A00D611D231F849F600D211D822F762F6A2F11249F5750408AF0E1F0882339
:203260004AF0EE0FFF1FBB1F661F771F881F91505040A9F79E3F510570F060CFAACF5F3F73
:20328000ECF3983EDCF3869577956795B795F795E7959F5FC1F7FE2B880F911D96958795C8
:2032A00097F90895629FD001739FF001829FE00DF11D649FE00DF11D929FF00D839FF00DA5
:2032C000749FF00D659FF00D9927729FB00DE11DF91F639FB00DE11DF91FBD01CF011124A1
:2032E0000895A1E21A2EAA1BBB1BFD010DC0AA1FBB1FEE1FFF1FA217B307E407F50720F0C8
:20330000A21BB30BE40BF50B661F771F881F991F1A9469F760957095809590959B01AC013E
:20332000BD01CF01089597FB092E05260ED057FD04D0D7DF0AD0001C38F450954095309511
:2033400021953F4F4F4F5F4F0895F6F790958095709561957F4F8F4F9F4F0895EE0FFF1FCC
:203360000590F491E02D09949111089581568A5108F48052855808952F923F924F925F92EC
:203380006F927F928F929F92AF92BF92CF92DF92EF92FF920F931F93CF93DF93CDB7DEB712
:2033A000CA1BDB0B0FB6F894DEBF0FBECDBF09942A88398848885F846E847D848C849B8416
:2033C000AA84B984C884DF80EE80FD800C811B81AA81B981CE0FD11D0FB6F894DEBF0FBED8
:2033E000CDBFED010895F894FFCF506F776572696E6720446F776E00256325632563005071
:203400006F776572696E6720555020696E20464D0047657474696E672050726576696F7566
:20342000732053657474696E67730020666F756E64200020696E206D656D6F7279004672E4
:203440006571204B6E6F623A200074756E696E6720746F20007374617274696E672072617B
:2034600064696F00436F6E6669677572696E6720427574746F6E7300656E74657220766171
:203480006C75657300256300256325632563256325632563002563256300566F6C756D6533
:2034A000207361766564206173200025632563256325630057726F746520002053656E64CA
:2034C00020504F5745525F555020636F6D6D616E6400256325632563002E646F6E650020B0
:2034E00053657420766F6C756D6520616E642064697361626C65206D75746500205365747A
:20350000207365656B2062616E64002073772000206C7720002053657420746F20414D2FB5
:20352000464D0020526573657474696E67205369343733350020506F776572696E67205594
:2035400070002053657474696E67205350490020436F6E66696720494F0000000000251589
:203560008B16B914EA14CA141315FFFFFFFFFFFFFFFFFFFFFFFFFFFFFFFFFFFFFFFFFFFFEF
:20358000FFFFFFFFFFFFFFFFFFFFFFFFFFFFFFFFFFFFFFFFFFFFFFFFFFFFFFFFFFFFFFFF4B
:2035A000FFFFFFFFFFFFFFFFFFFFFFFFFFFFFFFFFFFFFFFFFFFFFFFFFFFFFFFFFFFFFFFF2B
:2035C000FFFFFFFFFFFFFFFFFFFFFFFFFFFFFFFFFFFFFFFFFFFFFFFFFFFFFFFFFFFFFFFF0B
:2035E000FFFFFFFFFFFFFFFFFFFFFFFFFFFFFFFFFFFFFFFFFFFFFFFFFFFFFFFFFFFFFFFFEB
:020000040001F9
:20F000000C9472F80C9492F80C9492F80C9492F80C9492F80C9492F80C9492F80C9492F8C0
:20F020000C9492F80C9492F80C9492F80C9492F80C9492F80C9492F80C9492F80C9492F880
:20F040000C9492F80C9492F80C9492F80C9492F80C9492F80C9492F80C9492F80C9492F860
:20F060000C9492F80C9492F80C9492F80C9492F80C9492F80C9492F80C9492F80C9492F840
:20F080000C9492F80C9492F80C9492F80C9492F80C9492F80C9492F80C9492F80C9492F820
:20F0A0000C9492F80C9492F80C9492F80C9492F80C9492F80C9492F80C9492F80C9492F800
:20F0C0000C9492F80C9492F80C9492F80C9492F80C9492F80C9492F80C9492F80C9492F8E0
:20F0E0000C9492F811241FBECFEFD1E2DEBFCDBF12E0A0E0B2E0EEEDFEEF01E00BBF02C001
:20F1000007900D92A833B107D9F71BBE13E0A8E3B2E001C01D92A334B107E1F70E9412FAE8
:20F120000C946DFF0C9400F8982F9595959595959595905D8F708A301CF1282F295A80911E
:20F140003802813019F0823071F008958091C00085FFFCCF9093C6008091C00085FFFCCFE2
:20F160002093C60008958091C80085FFFCCF9093CE008091C80085FFFCCF2093CE0008951A
:20F18000282F205DDCCF982F80913802813019F0823041F008958091C00085FFFCCF909361
:20F1A000C60008958091C80085FFFCCF9093CE000895EF92FF920F931F93809138028130D4
:20F1C00069F1823031F080E01F910F91FF90EF900895EE24FF2487018091C80087FD17C0B6
:20F1E0000894E11CF11C011D111D81E4E81682E4F8068FE0080780E0180770F3E0913A0249
:20F20000F0913B0209958091C80087FFE9CF8091CE001F910F91FF90EF900895EE24FF246C
:20F2200087018091C00087FD17C00894E11CF11C011D111D81E4E81682E4F8068FE00807E3
:20F2400080E0180770F3E0913A02F0913B0209958091C00087FFE9CF8091C6001F910F918D
:20F26000FF90EF9008950E94D9F8982F80913802813049F0823091F091366CF490330CF05B
:20F280009053892F08958091C00085FFFCCF9093C60091369CF39755892F08958091C800BD
:20F2A00085FFFCCF9093CE00E7CF1F930E9433F9182F0E9433F91295107F810F1F910895B0
:20F2C000982F20913802992339F0213031F0223061F091509923C9F708958091C00087FF31
:20F2E000FCCF8091C6009150F5CF8091C80087FFFCCF8091CE009150EDCF1F93182F0E9486
:20F30000D9F8803249F0809139028F5F80933902853091F11F910895809138028130B9F080
:20F320008230C1F78091C80085FFFCCF84E18093CE008091C80085FFFCCF1093CE0080914B
:20F34000C80085FFFCCF80E18093CE00E3CF8091C00085FFFCCF84E18093C6008091C00073
:20F3600085FFFCCF1093C6008091C00085FFFCCF80E18093C600CECFE0913A02F0913B0273
:20F3800009951F9108950E94D9F8803241F0809139028F5F80933902853029F10895809127
:20F3A0003802813089F08230C9F78091C80085FFFCCF84E18093CE008091C80085FFFCCFE1
:20F3C00080E18093CE0008958091C00085FFFCCF84E18093C6008091C00085FFFCCF80E16F
:20F3E0008093C6000895E0913A02F0913B020995089540E951E08823A1F02F9A28EE33E069
:20F40000FA013197F1F721503040D1F72F9828EE33E0FA013197F1F721503040D1F7815083
:20F4200061F708952F923F924F925F926F927F928F929F92AF92BF92CF92DF92EF92FF9299
:20F440000F931F93CF93DF93000081E08093380280E18093C4001092C5001092C00086E06F
:20F460008093C20088E18093C1006898709A279A81E00E94F9F9E4E1EE2E7EE1D72E67E925
:20F48000C62E53E0B52E40E1A42E9924939431E4832E26E5722E92E5692E80E2582E09E437
:20F4A000402E13E5312EB0E52B2E0E94D9F88033C9F1813309F452C0803409F4C8C0813408
:20F4C00009F4EAC0823489F1853409F4CAC0803549F1823539F1813529F1853509F4ECC012
:20F4E000863509F409C1843609F428C1843709F4ABC1853709F473C2863709F4D9C08132D2
:20F5000009F4B7C2809139028F5F80933902853061F6E0913A02F0913B0209950E94D9F865
:20F52000803339F60E94C3F9C0CF2091380293E105C0223061F09923A9F391502130C9F7EB
:20F540008091C00087FFFCCF8091C600F4CF8091C80087FFFCCF8091CE00EDCF0E94D9F8B7
:20F56000803281F6809138028130D1F1823009F09CCF8091C80085FFFCCFE092CE00809115
:20F58000C80085FFFCCF8092CE008091C80085FFFCCF7092CE008091C80085FFFCCF609262
:20F5A000CE008091C80085FFFCCF5092CE008091C80085FFFCCF4092CE008091C80085FF80
:20F5C000FCCF3092CE008091C80085FFFCCF2092CE008091C80085FFFCCFA092CE0065CFCC
:20F5E0008091C00085FFFCCFE092C6008091C00085FFFCCF8092C6008091C00085FFFCCF9B
:20F600007092C6008091C00085FFFCCF6092C6008091C00085FFFCCF5092C6008091C000B1
:20F6200085FFFCCF4092C6008091C00085FFFCCF3092C6008091C00085FFFCCF2092C600A3
:20F640008091C00085FFFCCFA092C6002ECF0E94D9F8863808F466CF0E94D9F80E94C3F962
:20F6600024CF2091380294E0213041F0223069F0992309F457CF91502130C1F78091C00071
:20F6800087FFFCCF8091C600F3CF8091C80087FFFCCF8091CE00ECCF0E94D9F8803841F15F
:20F6A000813809F447C0823809F4CAC08839E1F080E00E947DF9F9CE0E94D9F880933C02B7
:20F6C0000E94D9F880933D020E94C3F9EECE0E94D9F80E94D9F8182F0E94D9F8112309F47A
:20F6E0007EC2113009F40AC283E00E947DF9DDCE82E00E947DF9D9CE0E94D9F8803339F327
:20F700002091380292E0213039F0223061F0992379F291502130C9F78091C00087FFFCCF34
:20F720008091C600F4CF8091C80087FFFCCF8091CE00EDCF81E00E947DF9B7CE0E94D9F8F9
:20F7400080933F030E94D9F880933E03809142038E7F809342030E94D9F8853409F4B3C135
:20F7600080913E0390913F03892B89F000E010E00E94D9F8F801E25CFD4F80830F5F1F4F02
:20F7800080913E0390913F030817190788F30E94D9F8803209F0B6CE8091420380FFB2C110
:20F7A00040913C0250913D02440F551F50933D0240933C0260913E0370913F0361157105BF
:20F7C000F1F080E090E09A01280F391FFC01E25CFD4FE081F999FECF1FBA32BD21BDE0BDC4
:20F7E0000FB6F894FA9AF99A0FBE01968617970750F3460F571F50933D0240933C028091A0
:20F800003802813081F0823009F04FCE8091C80085FFFCCFE092CE008091C80085FFFCCF34
:20F82000A092CE0042CE8091C00085FFFCCFE092C6008091C00085FFFCCFA092C60035CE45
:20F8400080E10E947DF931CE0E94D9F880933F030E94D9F880933E0320913C0230913D02B2
:20F8600037FD46C1809142038D7F80934203220F331F30933D0220933C020E94D9F88534F1
:20F8800009F430C1809142038E7F809342030E94D9F8803209F009CE60913802613009F411
:20F8A0006FC0623009F473C000913E0310913F030115110509F440C080914203782F71709B
:20F8C000F82EF69481E0F82240913C0250913D0220E030E013C0FF2009F060C0FA01949193
:20F8E000613009F43BC0623009F441C0CA0101962F5F3F4FAC0120173107D0F4772359F3AB
:20F90000F999FECF52BD41BDF89A90B56130F9F0623061F78091C80085FFFCCF9093CE0027
:20F92000CA0101962F5F3F4FAC012017310730F390933D0280933C02613009F4CAC06230AD
:20F9400009F0B3CD8091C80085FFFCCF46CE8091C00085FFFCCF9093C600C8CF8091C00081
:20F9600085FDF9CF8091C00085FFF8CFF4CF8091C80085FDD3CF8091C80085FFF8CFCECFA0
:20F980008091C00085FFFCCFE092C6008DCF8091C80085FFFCCFE092CE0086CFCA01A0E0AB
:20F9A000B0E080509040AF4FBF4FABBFFC019791613061F0623009F099CF8091C80085FD4C
:20F9C000ADCF8091C80085FFF8CFA8CF8091C00085FDC1CF8091C00085FFF8CFBCCF0E94E4
:20F9E000D9F8803209F08ECD80913802813011F1823009F05ACD8091C80085FFFCCFE092C6
:20FA0000CE008091C80085FFFCCFD092CE008091C80085FFFCCFC092CE008091C80085FF1B
:20FA2000FCCFB092CE008091C80085FFFCCFA092CE003BCD8091C00085FFFCCFE092C60063
:20FA40008091C00085FFFCCFD092C6008091C00085FFFCCFC092C6008091C00085FFFCCF06
:20FA6000B092C6008091C00085FFFCCFA092C6001CCD0E94D9F8813209F017CD0E94D9F807
:20FA8000813209F012CD279A2F981092400320913802E1E491E00EC0223009F4A4C09093A9
:20FAA0004003E92FF0E0E050FE4FE0819F5FEE2309F4A0C0213081F78091C00085FFFCCFE8
:20FAC000E093C600ECCF8091420381608093420347CE8091C00085FDB7CD8091C00085FF62
:20FAE000F8CFB2CD80914203816080934203CFCE80914203826080934203B9CE87E90E946B
:20FB00007DF9D3CC80913D028823880F880B8921809341038BBF80913C0290913D02880F1A
:20FB2000991F90933D0280933C0280913E0380FF09C080913E0390913F03019690933F030F
:20FB400080933E03F894F999FECF1127E0913C02F0913D02CEE3D2E080913E0390913F03A7
:20FB6000103091F40091570001700130D9F303E000935700E8950091570001700130D9F3CA
:20FB800001E100935700E895099019900091570001700130D9F301E000935700E895139594
:20FBA000103898F011270091570001700130D9F305E000935700E895009157000170013011
:20FBC000D9F301E100935700E8953296029709F0C7CF103011F00296E5CF112410CE8EE111
:20FBE0000E947DF962CC8091C80085FFFCCFE093CE0055CF7AE0B72E6DE0A62E5AE3952ED2
:20FC000040E2842E3DE3732E90E3692E81E3582E213009F442C0223009F45FC00E94D9F82A
:20FC2000982F20913802213089F1223009F44EC0943709F46BC0923709F405C1973709F4A0
:20FC40007BC0953799F0923609F4BDC09A3601F7E0913A02F0913B02099520913802D8CF6F
:20FC60008091C00085FFFCCF9093C6000E94D9F8982F80913802813099F38230B9F7809146
:20FC8000C80085FFFCCF9093CE00F0CF8091C00085FFFCCF9093C600CBCF8091C00085FFA5
:20FCA000FCCFB092C6008091C00085FFFCCFA092C6008091C00085FFFCCF9092C600809140
:20FCC000C00085FFFCCF8092C600A8CF8091C80085FFFCCF9093CE00ABCF8091C80085FFD6
:20FCE000FCCFB092CE008091C80085FFFCCFA092CE008091C80085FFFCCF9092CE008091D8
:20FD0000C80085FFFCCF8092CE0088CF1F9947C02F9A213051F0223009F07ACF8091C8000E
:20FD200085FFFCCF6092CE0073CF8091C00085FFFCCF6092C6006CCF0E94D9F8982F809114
:20FD400038028130F1F0823009F4ABC00E9455F9082F0E9455F9182F0E94D9F8982F809114
:20FD600038028130A9F0823009F4A2C00E9455F9D02ECC24F601E10FF11D8083209138022D
:20FD800047CF8091C00085FFFCCF9093C600DECF8091C00085FFFCCF9093C600E7CF2F9811
:20FDA000213051F0223009F033CF8091C80085FFFCCF5092CE002CCF8091C00085FFFCCF71
:20FDC0005092C60025CF213041F1223081F080E885BF109274001092750080E091E1FC0199
:20FDE000819180E091E13097D1F3CF01F8CF8091C80085FFFCCF82E68093CE008091C800B3
:20FE000085FFFCCF85E78093CE008091C80085FFFCCF83E78093CE00DACF8091C00085FFD5
:20FE2000FCCF82E68093C6008091C00085FFFCCF85E78093C6008091C00085FFFCCF83E7C7
:20FE40008093C600C4CF0E94D9F8982F809138028130C9F08230D1F10E9455F9182F0E94FA
:20FE600055F9982F809138028130A1F0823039F1F12EEE24F701E90FF11D80810E9494F8A6
:20FE800020913802C5CE8091C00085FFFCCF9093C600E2CF8091C00085FFFCCF7092C60042
:20FEA000E7CF8091C80085FFFCCF9093CE004ECF8091C80085FFFCCF9093CE0057CF809106
:20FEC000C80085FFFCCF7092CE00D2CF8091C80085FFFCCF9093CE00BFCFF894FFCF415404
:20FEE0006D656761424F4F54202F2041726475696E6F204D656761202D2028432920417285
:20FF00006475696E6F204C4C43202D203039303933300A0D0080FFFFFFFFFFFFFFFFFFFF98
:20FF2000FFFFFFFFFFFFFFFFFFFFFFFFFFFFFFFFFFFFFFFFFFFFFFFFFFFFFFFFFFFFFFFFE1
:20FF4000FFFFFFFFFFFFFFFFFFFFFFFFFFFFFFFFFFFFFFFFFFFFFFFFFFFFFFFFFFFFFFFFC1
:20FF6000FFFFFFFFFFFFFFFFFFFFFFFFFFFFFFFFFFFFFFFFFFFFFFFFFFFFFFFFFFFFFFFFA1
:20FF8000FFFFFFFFFFFFFFFFFFFFFFFFFFFFFFFFFFFFFFFFFFFFFFFFFFFFFFFFFFFFFFFF81
:20FFA000FFFFFFFFFFFFFFFFFFFFFFFFFFFFFFFFFFFFFFFFFFFFFFFFFFFFFFFFFFFFFFFF61
:20FFC000FFFFFFFFFFFFFFFFFFFFFFFFFFFFFFFFFFFFFFFFFFFFFFFFFFFFFFFFFFFFFFFF41
:20FFE000FFFFFFFFFFFFFFFFFFFFFFFFFFFFFFFFFFFFFFFFFFFFFFFFFFFFFFFFFFFFFFFF21
:00000001FF
